:1000000093C1FECFFDCF78C1FBCFFACFF9CFF8CFA8
:10001000F7CFF6CFF5CFF4CFF3CFF2CFF1CFF0CFCC
:02002000EFCF20
:10032800BFE5BDBFB1E0BEBFBFB7B068BFBFBBB719
:10033800B062BBBFB0B5B160B0BDB0B5B260B0BD62
:10034800B0B5B460B0BDB7B3BE7FB7BBB7B3BD7F00
:10035800B7BBB7B3BB7FB7BBBFEFBABBB0E0B09317
:100368006C00B0916000BB7FB0936000B9E0B093BF
:100378006100B0916000B77FB0936000B0916000F9
:10038800BD7FB0936000B0916000BE7FB093600005
:10039800D4DE10916C0000916100011718F4B0E0F0
:1003A800B0936C00B0916000B2FF2DC0B0E0B09384
:1003B8006200B091620011E0BB2319F0110FBA95E9
:1003C800E9F70BB3012B0BBB13E008E90A95F1F72A
:1003D8001A95E1F70000B091620001E0BB2319F023
:1003E800000FBA95E9F7102F10950BB301230BBB3B
:1003F80000916200073031F0009162000F5F0093B6
:100408006200D7CFC5CF009163001091640020919E
:100418006500309166000F5F1F4F2F4F3F4F0093CD
:100428006300109364002093650030936600009188
:100438006C00003009F041C0B0E0B0936200B091A8
:10044800620011E0BB2319F0110FBA95E9F70BB35D
:10045800012B0BBB12E606E60A95F1F71A95E1F7B0
:100468000000B091620001E0BB2319F0000FBA95BB
:10047800E9F7102F10950BB301230BBB0091630014
:100488001091640020916500309166000D5F1F4F48
:100498002F4F3F4F00936300109364002093650033
:1004A8003093660000916200073031F000916200DD
:1004B8000F5F00936200C3CF15C300916C00013039
:1004C80009F041C0B7E0B0936200B091620011E05A
:1004D800BB2319F0110FBA95E9F70BB3012B0BBB2E
:1004E80012E606E60A95F1F71A95E1F70000B091D1
:1004F800620001E0BB2319F0000FBA95E9F7102F4D
:1005080010950BB301230BBB00916300109164009D
:1005180020916500309166000D5F1F4F2F4F3F4FB0
:100528000093630010936400209365003093660085
:1005380000916200003031F0009162000150009398
:100548006200C3CFCFC200916C00023009F077C0BF
:10055800B0E0B09362001091620007E0011748F123
:10056800B091620011E0BB2319F0110FBA95E9F7B9
:100578000BB3012B0BBB12E80EED0A95F1F71A9598
:10058800E1F70000B091620001E0BB2319F0000F11
:10059800BA95E9F7102F10950BB301230BBB009107
:1005A8006200073031F0009162000E5F0093620034
:1005B800D2CF0091630010916400209165003091C2
:1005C80066000C5E1F4F2F4F3F4F00936300109340
:1005D80064002093650030936600B1E0B093620038
:1005E8001091620007E0011748F1B091620011E034
:1005F800BB2319F0110FBA95E9F70BB3012B0BBB0D
:1006080012E80EED0A95F1F71A95E1F70000B0919E
:10061800620001E0BB2319F0000FBA95E9F7102F2B
:1006280010950BB301230BBB00916200073031F02A
:10063800009162000E5F00936200D2CF53C2009116
:100648006C00033009F083C0B0E0B09362001091F1
:10065800620007E0011778F10090620007E00019D6
:10066800B02F11E0BB2319F0110FBA95E9F70BB3BE
:10067800012B0BBB12E80EED0A95F1F71A95E1F77D
:1006880000000090620007E00019B02F01E0BB23D2
:1006980019F0000FBA95E9F7102F10950BB3012345
:1006A8000BBB00916200073031F0009162000E5FD1
:1006B80000936200CCCF00916300109164002091F8
:1006C8006500309166000C5E1F4F2F4F3F4F00931F
:1006D8006300109364002093650030936600B1E0D6
:1006E800B09362001091620007E0011778F1009062
:1006F800620007E00019B02F11E0BB2319F0110FB9
:10070800BA95E9F70BB3012B0BBB12E80EED0A956E
:10071800F1F71A95E1F700000090620007E0001970
:10072800B02F01E0BB2319F0000FBA95E9F7102F9D
:1007380010950BB301230BBB00916200073031F019
:10074800009162000E5F00936200CCCFCBC1009194
:100758006C00043009F405C000916C00063009F003
:1007680083C0B0E0B0936200B091620011E0BB2397
:1007780019F0110FBA95E9F70BB3012B0BBB0091D8
:100788006200063021F4BBB3B160BBBB15C0009159
:100798006200073021F4BBB3B260BBBB0DC000914F
:1007A80062000E5FB02F11E0BB2319F0110FBA954C
:1007B800E9F70BB3012B0BBB13EC0DEC0A95F1F722
:1007C8001A95E1F700000000B0E0BBBB00916300A0
:1007D8001091640020916500309166000D5F1F4FF5
:1007E8002F4F3F4F009363001093640020936500E0
:1007F8003093660010916C0005E00117E0F413ECEB
:100808000DEC0A95F1F71A95E1F700000000009148
:1008180063001091640020916500309166000E5FBE
:100828001F4F2F4F3F4F0093630010936400209396
:1008380065003093660000916C00043010E009F008
:100848001FEF0630B0E009F0BFEF0B2F012309F0CE
:100858000AC000916200073031F0009162000F5F1A
:100868000093620081CF3EC100916C00053009F40D
:1008780005C000916C00073009F083C0B7E0B09361
:100888006200B091620011E0BB2319F0110FBA9514
:10089800E9F70BB3012B0BBB00916200013021F487
:1008A800BBB3B068BBBB15C000916200003021F437
:1008B800BBB3B064BBBB0DC0009162000250B02F47
:1008C80011E0BB2319F0110FBA95E9F70BB3012B0F
:1008D8000BBB13EC0DEC0A95F1F71A95E1F7000044
:1008E8000000B0E0BBBB0091630010916400209150
:1008F8006500309166000D5F1F4F2F4F3F4F0093EB
:100908006300109364002093650030936600109193
:100918006C0006E00117E0F413EC0DEC0A95F1F712
:100928001A95E1F70000000000916300109164003F
:1009380020916500309166000E5F1F4F2F4F3F4F8B
:100948000093630010936400209365003093660061
:1009580000916C00053010E009F01FEF0730B0E09F
:1009680009F0BFEF0B2F012309F00AC000916200C4
:10097800003031F00091620001500093620081CF95
:10098800B1C000916C00083009F083C0B0E0B093AA
:1009980062001091620007E0011748F1B09162000F
:1009A80011E0BB2319F0110FBA95E9F70BB3012B2E
:1009B8000BBB13E008E90A95F1F71A95E1F7000077
:1009C800B091620001E0BB2319F0000FBA95E9F776
:1009D800102F10950BB301230BBB00916200073059
:1009E80031F0009162000E5F00936200D2CF009157
:1009F80063001091640020916500309166000B5FE0
:100A08001F4F2F4F3F4F00936300109364002093B4
:100A180065003093660011E40FEE0A95F1F71A9518
:100A2800E1F7B1E0B09362001091620007E00117AE
:100A380048F1B091620011E0BB2319F0110FBA958B
:100A4800E9F70BB3012B0BBB13E008E90A95F1F7A3
:100A58001A95E1F70000B091620001E0BB2319F09C
:100A6800000FBA95E9F7102F10950BB301230BBBB4
:100A780000916200073031F0009162000E5F009330
:100A88006200D2CF11E40FEE0A95F1F71A95E1F75B
:100A980029C000916C00093029F5F5DB48E050E0E9
:100AA80022DB8C0100936200B02F11E0BB2319F008
:100AB800110FBA95E9F70BB3012B0BBB11E40FEE3D
:100AC8000A95F1F71A95E1F7B091620001E0BB23AE
:100AD80019F0000FBA95E9F7102F10950BB3012301
:100AE8000BBB00C0409163005091640060916500A9
:100AF800709166000AEF10E020E030E00417150757
:100B08002607370790F4B0E0B0936300B093640011
:100B1800B0936500B0936600B0916000B4FF05C063
:0E0B280000916C000F5F00936C0032CCFFCF89
:100142002F923F924F925F926F92B1E06B2EB1E08D
:100152005B2E4424B6E32B2EB0E03B2E72DF003040
:1001620029F0B0916000B860B09360006624B1E0FD
:100172005B2E4424B6E32B2EB0E03B2E62DF0090D0
:100182006000112703FC13950123A1F000916C007C
:100192000F5F00936C00B0916000BF7EB09360006F
:1001A200B0916000B77FB0936000B0916000BB7FF8
:1001B200B0936000B1E06B2EB1E05B2EB1E04B2E4C
:1001C200B6E32B2EB0E03B2E3CDF003029F0B0919D
:1001D2006000B260B09360006624B1E05B2EB1E0D3
:1001E2004B2EB6E32B2EB0E03B2E2BDF00906000AF
:1001F200112701FC1395012359F000906000B4E02F
:100202000B2600926000B0916000BD7FB093600049
:10021200B1E06B2EB1E05B2EB2E04B2EB6E32B2E9B
:10022200B0E03B2E0EDF003029F0B0916000B160EB
:10023200B09360006624B1E05B2EB2E04B2EB6E3D1
:100242002B2EB0E03B2EFDDE00906000112700FC5B
:1002520013950123A9F000906000B0E10B260092F3
:10026200600000916C000F5F00936C00B091600021
:10027200BE7FB0936000B0916000BB7FB09360001E
:0C0282006F905F904F903F902F90089578
:10004400CF93DF93CDB7DEB72197CDBFDEBF219627
:10005400B0E0B883B42D11E0BB2319F0110FBA95A9
:10006400E9F7F1010081102300E0103009F001E00C
:100074000615D9F400E0051530F4D1DFD0DF052DE5
:100084000150502EF7CFB42D11E0BB2319F0110FFE
:10009400BA95E9F7F1010081102300E0103009F06E
:1000A40001E0061511F4BFEFB8830881CDBFDEBFB0
:0600B400DF91CF910895D9
:0800220006EA0A95F1F70895C2
:10028E002F923F9200916B00003029F4B1E02B2E9B
:10029E00B0E03B2EC3DE0091670010916800209104
:1002AE00690030916A004DE65EE466EC71E4FEDEB4
:1002BE00075C1F4C2F4F3F4F022F132F20E017FDCF
:1002CE002FEF322F1F77207030700093670010933E
:1002DE0068002093690030936A0020916700309186
:0A02EE00680089013F902F900895E9
:10002A002092670030926800B0E0B0936900B09304
:0A003A006A00B1E0B0936B00089576
:1000BA00BB27AA279927882700FF04C0840F951F0A
:1000CA00A61FB71F440F551F661F771F3695279522
:1000DA001795079589F730502040100769F79D0159
:0400EA008C010895E8
:1000EE00C801BA0197FB092E07260AD077FD04D066
:1000FE000CD006D000201AF4709561957F4F0895AC
:10010E00F6F7909581959F4F0895AA1BBB1B51E161
:10011E0007C0AA1FBB1FA617B70710F0A61BB70B69
:10012E00881F991F5A95A9F780959095BC01CD010E
:04013E000895089583
:1002F8000F925F920F931F932F933F93EF93FF9368
:10030800BF93BFB7BF9319DFBF91BFBFBF91FF9125
:10031800EF913F912F911F910F915F900F9018953A
:00032800D5
:00000001FF
